{
  "_format": "hh-sol-artifact-1",
  "contractName": "DecisionLogger",
  "sourceName": "contracts/DecisionLogger.sol",
  "abi": [
    {
      "inputs": [
        {
          "internalType": "address",
          "name": "_allowlist",
          "type": "address"
        }
      ],
      "stateMutability": "nonpayable",
      "type": "constructor"
    },
    {
      "anonymous": false,
      "inputs": [
        {
          "indexed": true,
          "internalType": "address",
          "name": "agent",
          "type": "address"
        },
        {
          "indexed": false,
          "internalType": "string",
          "name": "thought",
          "type": "string"
        },
        {
          "indexed": false,
          "internalType": "string",
          "name": "decision",
          "type": "string"
        },
        {
          "indexed": false,
          "internalType": "bytes",
          "name": "toolParams",
          "type": "bytes"
        },
        {
          "indexed": false,
          "internalType": "uint256",
          "name": "timestamp",
          "type": "uint256"
        }
      ],
      "name": "DecisionLogged",
      "type": "event"
    },
    {
      "inputs": [],
      "name": "allowlist",
      "outputs": [
        {
          "internalType": "contract IAgentAllowlist",
          "name": "",
          "type": "address"
        }
      ],
      "stateMutability": "view",
      "type": "function"
    },
    {
      "inputs": [
        {
          "internalType": "string",
          "name": "thought",
          "type": "string"
        },
        {
          "internalType": "string",
          "name": "decision",
          "type": "string"
        },
        {
          "internalType": "bytes",
          "name": "toolParams",
          "type": "bytes"
        }
      ],
      "name": "logDecision",
      "outputs": [],
      "stateMutability": "nonpayable",
      "type": "function"
    }
  ],
  "bytecode": "0x608060405234801561001057600080fd5b506040516106c23803806106c2833981810160405281019061003291906100db565b806000806101000a81548173ffffffffffffffffffffffffffffffffffffffff021916908373ffffffffffffffffffffffffffffffffffffffff16021790555050610108565b600080fd5b600073ffffffffffffffffffffffffffffffffffffffff82169050919050565b60006100a88261007d565b9050919050565b6100b88161009d565b81146100c357600080fd5b50565b6000815190506100d5816100af565b92915050565b6000602082840312156100f1576100f0610078565b5b60006100ff848285016100c6565b91505092915050565b6105ab806101176000396000f3fe608060405234801561001057600080fd5b50600436106100365760003560e01c8063214eac471461003b5780632b47da5214610057575b600080fd5b610055600480360381019061005091906102ed565b610075565b005b61005f6100ce565b60405161006c9190610413565b60405180910390f35b3373ffffffffffffffffffffffffffffffffffffffff167f799f78a1a8d921300c0bc308a539ea381ffcdb9ee07a72e4238a923f146dd5de848484426040516100c1949392919061051b565b60405180910390a2505050565b60008054906101000a900473ffffffffffffffffffffffffffffffffffffffff1681565b6000604051905090565b600080fd5b600080fd5b600080fd5b600080fd5b6000601f19601f8301169050919050565b7f4e487b7100000000000000000000000000000000000000000000000000000000600052604160045260246000fd5b61015982610110565b810181811067ffffffffffffffff8211171561017857610177610121565b5b80604052505050565b600061018b6100f2565b90506101978282610150565b919050565b600067ffffffffffffffff8211156101b7576101b6610121565b5b6101c082610110565b9050602081019050919050565b82818337600083830152505050565b60006101ef6101ea8461019c565b610181565b90508281526020810184848401111561020b5761020a61010b565b5b6102168482856101cd565b509392505050565b600082601f83011261023357610232610106565b5b81356102438482602086016101dc565b91505092915050565b600067ffffffffffffffff82111561026757610266610121565b5b61027082610110565b9050602081019050919050565b600061029061028b8461024c565b610181565b9050828152602081018484840111156102ac576102ab61010b565b5b6102b78482856101cd565b509392505050565b600082601f8301126102d4576102d3610106565b5b81356102e484826020860161027d565b91505092915050565b600080600060608486031215610306576103056100fc565b5b600084013567ffffffffffffffff81111561032457610323610101565b5b6103308682870161021e565b935050602084013567ffffffffffffffff81111561035157610350610101565b5b61035d8682870161021e565b925050604084013567ffffffffffffffff81111561037e5761037d610101565b5b61038a868287016102bf565b9150509250925092565b600073ffffffffffffffffffffffffffffffffffffffff82169050919050565b6000819050919050565b60006103d96103d46103cf84610394565b6103b4565b610394565b9050919050565b60006103eb826103be565b9050919050565b60006103fd826103e0565b9050919050565b61040d816103f2565b82525050565b60006020820190506104286000830184610404565b92915050565b600081519050919050565b600082825260208201905092915050565b60005b8381101561046857808201518184015260208101905061044d565b60008484015250505050565b600061047f8261042e565b6104898185610439565b935061049981856020860161044a565b6104a281610110565b840191505092915050565b600081519050919050565b600082825260208201905092915050565b60006104d4826104ad565b6104de81856104b8565b93506104ee81856020860161044a565b6104f781610110565b840191505092915050565b6000819050919050565b61051581610502565b82525050565b600060808201905081810360008301526105358187610474565b905081810360208301526105498186610474565b9050818103604083015261055d81856104c9565b905061056c606083018461050c565b9594505050505056fea2646970667358221220cdcc05d6e9eaa6435df37cafaf8761562d0feb4a2d6f19362875f480b94ec3dd64736f6c63430008180033",
  "linkReferences": {},
  "deployedLinkReferences": {}
}